{
  "abi": [
    {
      "inputs": [
        {
          "internalType": "string",
          "name": "_name",
          "type": "string"
        },
        {
          "internalType": "address[]",
          "name": "_initialMembers",
          "type": "address[]"
        },
        {
          "internalType": "uint256",
          "name": "_initialThreshold",
          "type": "uint256"
        }
      ],
      "stateMutability": "nonpayable",
      "type": "constructor"
    },
    {
      "anonymous": false,
      "inputs": [
        {
          "indexed": false,
          "internalType": "uint256",
          "name": "announcementId",
          "type": "uint256"
        },
        {
          "indexed": false,
          "internalType": "string",
          "name": "title",
          "type": "string"
        },
        {
          "indexed": false,
          "internalType": "string",
          "name": "body",
          "type": "string"
        },
        {
          "indexed": false,
          "internalType": "address[]",
          "name": "signers",
          "type": "address[]"
        }
      ],
      "name": "AnnouncementEmitted",
      "type": "event"
    },
    {
      "anonymous": false,
      "inputs": [
        {
          "indexed": false,
          "internalType": "uint256",
          "name": "announcementId",
          "type": "uint256"
        },
        {
          "indexed": false,
          "internalType": "string",
          "name": "title",
          "type": "string"
        },
        {
          "indexed": false,
          "internalType": "string",
          "name": "body",
          "type": "string"
        },
        {
          "indexed": false,
          "internalType": "address[]",
          "name": "signers",
          "type": "address[]"
        }
      ],
      "name": "SafeAnnouncementEmitted",
      "type": "event"
    },
    {
      "inputs": [],
      "name": "announcementCount",
      "outputs": [
        {
          "internalType": "uint256",
          "name": "",
          "type": "uint256"
        }
      ],
      "stateMutability": "view",
      "type": "function"
    },
    {
      "inputs": [
        {
          "internalType": "uint256",
          "name": "",
          "type": "uint256"
        }
      ],
      "name": "announcements",
      "outputs": [
        {
          "internalType": "string",
          "name": "title",
          "type": "string"
        },
        {
          "internalType": "string",
          "name": "body",
          "type": "string"
        },
        {
          "internalType": "bool",
          "name": "isEmitted",
          "type": "bool"
        }
      ],
      "stateMutability": "view",
      "type": "function"
    },
    {
      "inputs": [
        {
          "internalType": "uint256",
          "name": "_announcementId",
          "type": "uint256"
        }
      ],
      "name": "getAnnouncement",
      "outputs": [
        {
          "internalType": "string",
          "name": "title",
          "type": "string"
        },
        {
          "internalType": "string",
          "name": "body",
          "type": "string"
        },
        {
          "internalType": "address[]",
          "name": "signers",
          "type": "address[]"
        },
        {
          "internalType": "bool",
          "name": "isEmitted",
          "type": "bool"
        }
      ],
      "stateMutability": "view",
      "type": "function"
    },
    {
      "inputs": [
        {
          "internalType": "uint256",
          "name": "_announcementId",
          "type": "uint256"
        }
      ],
      "name": "getSafeAnnouncement",
      "outputs": [
        {
          "internalType": "bytes32",
          "name": "contentHash",
          "type": "bytes32"
        },
        {
          "internalType": "string",
          "name": "title",
          "type": "string"
        },
        {
          "internalType": "string",
          "name": "body",
          "type": "string"
        },
        {
          "internalType": "address[]",
          "name": "signers",
          "type": "address[]"
        },
        {
          "internalType": "bool",
          "name": "isRevealed",
          "type": "bool"
        }
      ],
      "stateMutability": "view",
      "type": "function"
    },
    {
      "inputs": [],
      "name": "memberProposalCount",
      "outputs": [
        {
          "internalType": "uint256",
          "name": "",
          "type": "uint256"
        }
      ],
      "stateMutability": "view",
      "type": "function"
    },
    {
      "inputs": [
        {
          "internalType": "uint256",
          "name": "",
          "type": "uint256"
        }
      ],
      "name": "memberProposals",
      "outputs": [
        {
          "internalType": "address",
          "name": "target",
          "type": "address"
        },
        {
          "internalType": "bool",
          "name": "isAddition",
          "type": "bool"
        },
        {
          "internalType": "bool",
          "name": "executed",
          "type": "bool"
        }
      ],
      "stateMutability": "view",
      "type": "function"
    },
    {
      "inputs": [
        {
          "internalType": "address",
          "name": "",
          "type": "address"
        }
      ],
      "name": "members",
      "outputs": [
        {
          "internalType": "bool",
          "name": "",
          "type": "bool"
        }
      ],
      "stateMutability": "view",
      "type": "function"
    },
    {
      "inputs": [],
      "name": "name",
      "outputs": [
        {
          "internalType": "string",
          "name": "",
          "type": "string"
        }
      ],
      "stateMutability": "view",
      "type": "function"
    },
    {
      "inputs": [
        {
          "internalType": "string",
          "name": "_title",
          "type": "string"
        },
        {
          "internalType": "string",
          "name": "_body",
          "type": "string"
        }
      ],
      "name": "proposeAnnouncement",
      "outputs": [
        {
          "internalType": "uint256",
          "name": "",
          "type": "uint256"
        }
      ],
      "stateMutability": "nonpayable",
      "type": "function"
    },
    {
      "inputs": [
        {
          "internalType": "address",
          "name": "_target",
          "type": "address"
        },
        {
          "internalType": "bool",
          "name": "_isAddition",
          "type": "bool"
        }
      ],
      "name": "proposeMemberChange",
      "outputs": [
        {
          "internalType": "uint256",
          "name": "",
          "type": "uint256"
        }
      ],
      "stateMutability": "nonpayable",
      "type": "function"
    },
    {
      "inputs": [
        {
          "internalType": "bytes32",
          "name": "_contentHash",
          "type": "bytes32"
        }
      ],
      "name": "proposeSafeAnnouncement",
      "outputs": [
        {
          "internalType": "uint256",
          "name": "",
          "type": "uint256"
        }
      ],
      "stateMutability": "nonpayable",
      "type": "function"
    },
    {
      "inputs": [
        {
          "internalType": "uint256",
          "name": "_newThreshold",
          "type": "uint256"
        }
      ],
      "name": "proposeThresholdChange",
      "outputs": [
        {
          "internalType": "uint256",
          "name": "",
          "type": "uint256"
        }
      ],
      "stateMutability": "nonpayable",
      "type": "function"
    },
    {
      "inputs": [
        {
          "internalType": "uint256",
          "name": "_announcementId",
          "type": "uint256"
        },
        {
          "internalType": "string",
          "name": "_title",
          "type": "string"
        },
        {
          "internalType": "string",
          "name": "_body",
          "type": "string"
        }
      ],
      "name": "revealSafeAnnouncement",
      "outputs": [],
      "stateMutability": "nonpayable",
      "type": "function"
    },
    {
      "inputs": [],
      "name": "safeAnnouncementCount",
      "outputs": [
        {
          "internalType": "uint256",
          "name": "",
          "type": "uint256"
        }
      ],
      "stateMutability": "view",
      "type": "function"
    },
    {
      "inputs": [
        {
          "internalType": "uint256",
          "name": "",
          "type": "uint256"
        }
      ],
      "name": "safeAnnouncements",
      "outputs": [
        {
          "internalType": "bytes32",
          "name": "contentHash",
          "type": "bytes32"
        },
        {
          "internalType": "string",
          "name": "title",
          "type": "string"
        },
        {
          "internalType": "string",
          "name": "body",
          "type": "string"
        },
        {
          "internalType": "bool",
          "name": "isRevealed",
          "type": "bool"
        }
      ],
      "stateMutability": "view",
      "type": "function"
    },
    {
      "inputs": [
        {
          "internalType": "uint256",
          "name": "_announcementId",
          "type": "uint256"
        }
      ],
      "name": "signAnnouncement",
      "outputs": [],
      "stateMutability": "nonpayable",
      "type": "function"
    },
    {
      "inputs": [
        {
          "internalType": "uint256",
          "name": "_announcementId",
          "type": "uint256"
        }
      ],
      "name": "signSafeAnnouncement",
      "outputs": [],
      "stateMutability": "nonpayable",
      "type": "function"
    },
    {
      "inputs": [],
      "name": "signingThreshold",
      "outputs": [
        {
          "internalType": "uint256",
          "name": "",
          "type": "uint256"
        }
      ],
      "stateMutability": "view",
      "type": "function"
    },
    {
      "inputs": [],
      "name": "thresholdProposalCount",
      "outputs": [
        {
          "internalType": "uint256",
          "name": "",
          "type": "uint256"
        }
      ],
      "stateMutability": "view",
      "type": "function"
    },
    {
      "inputs": [
        {
          "internalType": "uint256",
          "name": "",
          "type": "uint256"
        }
      ],
      "name": "thresholdProposals",
      "outputs": [
        {
          "internalType": "uint256",
          "name": "newThreshold",
          "type": "uint256"
        },
        {
          "internalType": "bool",
          "name": "executed",
          "type": "bool"
        }
      ],
      "stateMutability": "view",
      "type": "function"
    },
    {
      "inputs": [
        {
          "internalType": "uint256",
          "name": "_proposalId",
          "type": "uint256"
        }
      ],
      "name": "voteOnMemberProposal",
      "outputs": [],
      "stateMutability": "nonpayable",
      "type": "function"
    },
    {
      "inputs": [
        {
          "internalType": "uint256",
          "name": "_proposalId",
          "type": "uint256"
        }
      ],
      "name": "voteOnThresholdProposal",
      "outputs": [],
      "stateMutability": "nonpayable",
      "type": "function"
    }
  ],
  "bytecode": {
    "object": "0x608060405260006001556000600255600060035560006004553480156200002557600080fd5b5060405162001f7138038062001f718339810160408190526200004891620001d5565b600062000056848262000349565b506005819055336000908152600660205260408120805460ff191660011790555b8251811015620000e3576001600660008584815181106200009c576200009c62000415565b6020908102919091018101516001600160a01b03168252810191909152604001600020805460ff191691151591909117905580620000da816200042b565b91505062000077565b5050505062000453565b634e487b7160e01b600052604160045260246000fd5b604051601f8201601f191681016001600160401b03811182821017156200012e576200012e620000ed565b604052919050565b600082601f8301126200014857600080fd5b815160206001600160401b03821115620001665762000166620000ed565b8160051b6200017782820162000103565b92835284810182019282810190878511156200019257600080fd5b83870192505b84831015620001ca5782516001600160a01b0381168114620001ba5760008081fd5b8252918301919083019062000198565b979650505050505050565b600080600060608486031215620001eb57600080fd5b83516001600160401b03808211156200020357600080fd5b818601915086601f8301126200021857600080fd5b8151818111156200022d576200022d620000ed565b602062000243601f8301601f1916820162000103565b82815289828487010111156200025857600080fd5b60005b83811015620002785785810183015182820184015282016200025b565b5060009281018201929092528701519095509150808211156200029a57600080fd5b50620002a98682870162000136565b925050604084015190509250925092565b600181811c90821680620002cf57607f821691505b602082108103620002f057634e487b7160e01b600052602260045260246000fd5b50919050565b601f8211156200034457600081815260208120601f850160051c810160208610156200031f5750805b601f850160051c820191505b8181101562000340578281556001016200032b565b5050505b505050565b81516001600160401b03811115620003655762000365620000ed565b6200037d81620003768454620002ba565b84620002f6565b602080601f831160018114620003b557600084156200039c5750858301515b600019600386901b1c1916600185901b17855562000340565b600085815260208120601f198616915b82811015620003e657888601518255948401946001909101908401620003c5565b5085821015620004055787850151600019600388901b60f8161c191681555b5050505050600190811b01905550565b634e487b7160e01b600052603260045260246000fd5b6000600182016200044c57634e487b7160e01b600052601160045260246000fd5b5060010190565b611b0e80620004636000396000f3fe608060405234801561001057600080fd5b50600436106101425760003560e01c80639d77fd7b116100b8578063bb82e17f1161007c578063bb82e17f1461034a578063c8e5cb5714610353578063c9c02eac14610366578063d16cdae11461036f578063d585aa4214610392578063f17a52261461039b57600080fd5b80639d77fd7b146102af578063a78a336b146102d2578063a9f8a7ff146102e5578063aad22ef3146102f8578063babc0c361461033757600080fd5b80631bcfbe311161010a5780631bcfbe31146102405780631c2c3868146102625780632a4d7e44146102755780636fa8cf331461027e5780638b2a587f1461028757806393f7074c1461029c57600080fd5b8063019275eb1461014757806306fdde031461016d57806308ae4b0c146101825780630ab54b3c146101b55780630bd62738146101d9575b600080fd5b61015a61015536600461141c565b6103ae565b6040519081526020015b60405180910390f35b610175610451565b60405161016491906114a8565b6101a56101903660046114c2565b60066020526000908152604090205460ff1681565b6040519015158152602001610164565b6101c86101c33660046114dd565b6104df565b60405161016495949392919061153a565b6102196101e73660046114dd565b600760205260009081526040902080546002909101546001600160a01b0382169160ff600160a01b9091048116911683565b604080516001600160a01b0390941684529115156020840152151590820152606001610164565b61025361024e3660046114dd565b61069f565b6040516101649392919061158e565b61015a610270366004611669565b6107d4565b61015a60025481565b61015a60045481565b61029a6102953660046114dd565b610859565b005b61015a6102aa3660046114dd565b610a09565b6102c26102bd3660046114dd565b610a80565b60405161016494939291906116cd565b61029a6102e03660046114dd565b610bbc565b61015a6102f33660046114dd565b610d0b565b6103226103063660046114dd565b6008602052600090815260409020805460029091015460ff1682565b60408051928352901515602083015201610164565b61029a6103453660046114dd565b610d77565b61015a60015481565b61029a61036136600461170c565b610f10565b61015a60035481565b61038261037d3660046114dd565b6110e5565b6040516101649493929190611779565b61015a60055481565b61029a6103a93660046114dd565b61129a565b3360009081526006602052604081205460ff166103e65760405162461bcd60e51b81526004016103dd906117b2565b60405180910390fd5b600280546000916007918391826103fc836117ee565b90915550815260208101919091526040016000208054841515600160a01b026001600160a81b03199091166001600160a01b0387161717815560025490915061044790600190611807565b9150505b92915050565b6000805461045e9061181a565b80601f016020809104026020016040519081016040528092919081815260200182805461048a9061181a565b80156104d75780601f106104ac576101008083540402835291602001916104d7565b820191906000526020600020905b8154815290600101906020018083116104ba57829003601f168201915b505050505081565b6000818152600a602052604081208054600482015460018301805460609485948594889492939192916002850191600386019160ff9091169084906105239061181a565b80601f016020809104026020016040519081016040528092919081815260200182805461054f9061181a565b801561059c5780601f106105715761010080835404028352916020019161059c565b820191906000526020600020905b81548152906001019060200180831161057f57829003601f168201915b505050505093508280546105af9061181a565b80601f01602080910402602001604051908101604052809291908181526020018280546105db9061181a565b80156106285780601f106105fd57610100808354040283529160200191610628565b820191906000526020600020905b81548152906001019060200180831161060b57829003601f168201915b505050505092508180548060200260200160405190810160405280929190818152602001828054801561068457602002820191906000526020600020905b81546001600160a01b03168152600190910190602001808311610666575b50505050509150955095509550955095505091939590929450565b6009602052600090815260409020805481906106ba9061181a565b80601f01602080910402602001604051908101604052809291908181526020018280546106e69061181a565b80156107335780601f1061070857610100808354040283529160200191610733565b820191906000526020600020905b81548152906001019060200180831161071657829003601f168201915b5050505050908060010180546107489061181a565b80601f01602080910402602001604051908101604052809291908181526020018280546107749061181a565b80156107c15780601f10610796576101008083540402835291602001916107c1565b820191906000526020600020905b8154815290600101906020018083116107a457829003601f168201915b5050506003909301549192505060ff1683565b3360009081526006602052604081205460ff166108035760405162461bcd60e51b81526004016103dd906117b2565b60048054600091600991839182610819836117ee565b909155508152602081019190915260400160002090508061083a85826118a3565b506001810161084984826118a3565b5060016004546104479190611807565b3360009081526006602052604090205460ff166108885760405162461bcd60e51b81526004016103dd906117b2565b6000818152600960205260409020600381015460ff16156108eb5760405162461bcd60e51b815260206004820152601c60248201527f416e6e6f756e63656d656e7420616c726561647920656d69747465640000000060448201526064016103dd565b60005b600282015481101561097e57336001600160a01b031682600201828154811061091957610919611963565b6000918252602090912001546001600160a01b03160361096c5760405162461bcd60e51b815260206004820152600e60248201526d105b1c9958591e481cda59db995960921b60448201526064016103dd565b80610976816117ee565b9150506108ee565b506002810180546001810182556000828152602090200180546001600160a01b03191633179055600554905410610a055760038101805460ff191660019081179091556040517fca97794ac0e391223f82a04b89303ae40370451164cc4ac872d1eeb57c075c69916109fc9185918591908201906002830190611a34565b60405180910390a15b5050565b3360009081526006602052604081205460ff16610a385760405162461bcd60e51b81526004016103dd906117b2565b60038054600091600891839182610a4e836117ee565b9091555081526020810191909152604001600020838155600354909150610a7790600190611807565b9150505b919050565b600a6020526000908152604090208054600182018054919291610aa29061181a565b80601f0160208091040260200160405190810160405280929190818152602001828054610ace9061181a565b8015610b1b5780601f10610af057610100808354040283529160200191610b1b565b820191906000526020600020905b815481529060010190602001808311610afe57829003601f168201915b505050505090806002018054610b309061181a565b80601f0160208091040260200160405190810160405280929190818152602001828054610b5c9061181a565b8015610ba95780601f10610b7e57610100808354040283529160200191610ba9565b820191906000526020600020905b815481529060010190602001808311610b8c57829003601f168201915b5050506004909301549192505060ff1684565b3360009081526006602052604090205460ff16610beb5760405162461bcd60e51b81526004016103dd906117b2565b6000818152600a60205260409020600481015460ff1615610c4e5760405162461bcd60e51b815260206004820152601d60248201527f416e6e6f756e63656d656e7420616c72656164792072657665616c656400000060448201526064016103dd565b60005b6003820154811015610ce157336001600160a01b0316826003018281548110610c7c57610c7c611963565b6000918252602090912001546001600160a01b031603610ccf5760405162461bcd60e51b815260206004820152600e60248201526d105b1c9958591e481cda59db995960921b60448201526064016103dd565b80610cd9816117ee565b915050610c51565b506003018054600181018255600091825260209091200180546001600160a01b0319163317905550565b3360009081526006602052604081205460ff16610d3a5760405162461bcd60e51b81526004016103dd906117b2565b60018054600091600a91839182610d50836117ee565b909155508152602081019190915260400160002083815560018054919250610a7791611807565b3360009081526006602052604090205460ff16610da65760405162461bcd60e51b81526004016103dd906117b2565b6000818152600760205260409020600281015460ff1615610e055760405162461bcd60e51b8152602060048201526019602482015278141c9bdc1bdcd85b08185b1c9958591e48195e1958dd5d1959603a1b60448201526064016103dd565b60005b6001820154811015610e9757336001600160a01b0316826001018281548110610e3357610e33611963565b6000918252602090912001546001600160a01b031603610e855760405162461bcd60e51b815260206004820152600d60248201526c105b1c9958591e481d9bdd1959609a1b60448201526064016103dd565b80610e8f816117ee565b915050610e08565b5060018082018054918201815560008181526020902090910180546001600160a01b03191633179055600554905410610a055760028101805460ff1990811660011790915581546001600160a01b03811660009081526006602052604090208054600160a01b90920460ff161515919092161790555050565b3360009081526006602052604090205460ff16610f3f5760405162461bcd60e51b81526004016103dd906117b2565b6000838152600a60205260409020600481015460ff1615610fa25760405162461bcd60e51b815260206004820152601d60248201527f416e6e6f756e63656d656e7420616c72656164792072657665616c656400000060448201526064016103dd565b60055460038201541015610ff85760405162461bcd60e51b815260206004820152601d60248201527f5369676e696e67207468726573686f6c64206e6f74207265616368656400000060448201526064016103dd565b6000838360405160200161100d929190611a7e565b604051602081830303815290604052805190602001209050816000015481146110705760405162461bcd60e51b8152602060048201526015602482015274086dedce8cadce840d0c2e6d040dad2e6dac2e8c6d605b1b60448201526064016103dd565b60048201805460ff19166001908117909155820161108e85826118a3565b506002820161109d84826118a3565b507f4fcc07cc9e97f74ee6aa9dee4ebce8b05cebb154ed6f7217551e849472b387c7858585856003016040516110d69493929190611aad565b60405180910390a15050505050565b600081815260096020526040812060038101548154606093849384939192909182916001830191600284019160ff9091169084906111229061181a565b80601f016020809104026020016040519081016040528092919081815260200182805461114e9061181a565b801561119b5780601f106111705761010080835404028352916020019161119b565b820191906000526020600020905b81548152906001019060200180831161117e57829003601f168201915b505050505093508280546111ae9061181a565b80601f01602080910402602001604051908101604052809291908181526020018280546111da9061181a565b80156112275780601f106111fc57610100808354040283529160200191611227565b820191906000526020600020905b81548152906001019060200180831161120a57829003601f168201915b505050505092508180548060200260200160405190810160405280929190818152602001828054801561128357602002820191906000526020600020905b81546001600160a01b03168152600190910190602001808311611265575b505050505091509450945094509450509193509193565b3360009081526006602052604090205460ff166112c95760405162461bcd60e51b81526004016103dd906117b2565b6000818152600860205260409020600281015460ff16156113285760405162461bcd60e51b8152602060048201526019602482015278141c9bdc1bdcd85b08185b1c9958591e48195e1958dd5d1959603a1b60448201526064016103dd565b60005b60018201548110156113ba57336001600160a01b031682600101828154811061135657611356611963565b6000918252602090912001546001600160a01b0316036113a85760405162461bcd60e51b815260206004820152600d60248201526c105b1c9958591e481d9bdd1959609a1b60448201526064016103dd565b806113b2816117ee565b91505061132b565b5060018082018054918201815560008181526020902090910180546001600160a01b03191633179055600554905410610a055760028101805460ff1916600117905580546005555050565b80356001600160a01b0381168114610a7b57600080fd5b6000806040838503121561142f57600080fd5b61143883611405565b91506020830135801515811461144d57600080fd5b809150509250929050565b60005b8381101561147357818101518382015260200161145b565b50506000910152565b60008151808452611494816020860160208601611458565b601f01601f19169290920160200192915050565b6020815260006114bb602083018461147c565b9392505050565b6000602082840312156114d457600080fd5b6114bb82611405565b6000602082840312156114ef57600080fd5b5035919050565b600081518084526020808501945080840160005b8381101561152f5781516001600160a01b03168752958201959082019060010161150a565b509495945050505050565b85815260a06020820152600061155360a083018761147c565b8281036040840152611565818761147c565b9050828103606084015261157981866114f6565b91505082151560808301529695505050505050565b6060815260006115a1606083018661147c565b82810360208401526115b3818661147c565b9150508215156040830152949350505050565b634e487b7160e01b600052604160045260246000fd5b600082601f8301126115ed57600080fd5b813567ffffffffffffffff80821115611608576116086115c6565b604051601f8301601f19908116603f01168101908282118183101715611630576116306115c6565b8160405283815286602085880101111561164957600080fd5b836020870160208301376000602085830101528094505050505092915050565b6000806040838503121561167c57600080fd5b823567ffffffffffffffff8082111561169457600080fd5b6116a0868387016115dc565b935060208501359150808211156116b657600080fd5b506116c3858286016115dc565b9150509250929050565b8481526080602082015260006116e6608083018661147c565b82810360408401526116f8818661147c565b915050821515606083015295945050505050565b60008060006060848603121561172157600080fd5b83359250602084013567ffffffffffffffff8082111561174057600080fd5b61174c878388016115dc565b9350604086013591508082111561176257600080fd5b5061176f868287016115dc565b9150509250925092565b60808152600061178c608083018761147c565b828103602084015261179e818761147c565b905082810360408401526116f881866114f6565b6020808252600c908201526b2737ba10309036b2b6b132b960a11b604082015260600190565b634e487b7160e01b600052601160045260246000fd5b600060018201611800576118006117d8565b5060010190565b8181038181111561044b5761044b6117d8565b600181811c9082168061182e57607f821691505b60208210810361184e57634e487b7160e01b600052602260045260246000fd5b50919050565b601f82111561189e57600081815260208120601f850160051c8101602086101561187b5750805b601f850160051c820191505b8181101561189a57828155600101611887565b5050505b505050565b815167ffffffffffffffff8111156118bd576118bd6115c6565b6118d1816118cb845461181a565b84611854565b602080601f83116001811461190657600084156118ee5750858301515b600019600386901b1c1916600185901b17855561189a565b600085815260208120601f198616915b8281101561193557888601518255948401946001909101908401611916565b50858210156119535787850151600019600388901b60f8161c191681555b5050505050600190811b01905550565b634e487b7160e01b600052603260045260246000fd5b600081546119868161181a565b8085526020600183811680156119a357600181146119bd576119eb565b60ff1985168884015283151560051b8801830195506119eb565b866000528260002060005b858110156119e35781548a82018601529083019084016119c8565b890184019650505b505050505092915050565b6000815480845260208085019450836000528060002060005b8381101561152f5781546001600160a01b031687529582019560019182019101611a0f565b848152608060208201526000611a4d6080830186611979565b8281036040840152611a5f8186611979565b90508281036060840152611a7381856119f6565b979650505050505050565b60008351611a90818460208801611458565b835190830190611aa4818360208801611458565b01949350505050565b848152608060208201526000611ac6608083018661147c565b8281036040840152611a5f818661147c56fea26469706673582212202999172755cab7fc6da1a42f0baed253f377392bbe8d48c0e500f8be622704cb64736f6c63430008150033",
    "linkReferences": {}
  },
  "methodIdentifiers": {
    "announcementCount()": "6fa8cf33",
    "announcements(uint256)": "1bcfbe31",
    "getAnnouncement(uint256)": "d16cdae1",
    "getSafeAnnouncement(uint256)": "0ab54b3c",
    "memberProposalCount()": "2a4d7e44",
    "memberProposals(uint256)": "0bd62738",
    "members(address)": "08ae4b0c",
    "name()": "06fdde03",
    "proposeAnnouncement(string,string)": "1c2c3868",
    "proposeMemberChange(address,bool)": "019275eb",
    "proposeSafeAnnouncement(bytes32)": "a9f8a7ff",
    "proposeThresholdChange(uint256)": "93f7074c",
    "revealSafeAnnouncement(uint256,string,string)": "c8e5cb57",
    "safeAnnouncementCount()": "bb82e17f",
    "safeAnnouncements(uint256)": "9d77fd7b",
    "signAnnouncement(uint256)": "8b2a587f",
    "signSafeAnnouncement(uint256)": "a78a336b",
    "signingThreshold()": "d585aa42",
    "thresholdProposalCount()": "c9c02eac",
    "thresholdProposals(uint256)": "aad22ef3",
    "voteOnMemberProposal(uint256)": "babc0c36",
    "voteOnThresholdProposal(uint256)": "f17a5226"
  },
  "id": 19
}